:020000040800F2
:10000000D004002045010008E7170008C7160008C3
:10001000E51700080D03000889190008000000001A
:10002000000000000000000000000000EB170008C6
:100030004703000800000000E9170008ED1700085A
:100040005F0100085F0100085F0100085F01000810
:100050005F0100085F0100085F0100085F01000800
:100060005F0100085F0100085F010008110300083C
:100070005F0100085F0100085F0100085F010008E0
:100080005F0100085F0100085F0100085F010008D0
:100090005F0100085F0100085F0100085F010008C0
:1000A0005F0100085F0100085F0100085F010008B0
:1000B0005F0100085F0100085F0100085F010008A0
:1000C0005F0100085F0100085F0100085F01000890
:1000D0005F0100085F0100085F0100085F01000880
:1000E0005F0100085F0100085F0100085F01000870
:1000F0005F0100085F0100085F0100085F01000860
:100100005F0100085F0100085F0100085F0100084F
:100110005F0100085F0100085F0100085F0100083F
:100120005F0100085F0100085F0100085F0100082F
:10013000DFF80CD000F040F800480047591B0008D9
:10014000D00400200648804706480047FEE7FEE747
:10015000FEE7FEE7FEE7FEE7FEE7FEE7FEE7FEE777
:100160006B18000831010008D2B201E000F8012B41
:10017000491EFBD270470022F6E710B513460A4627
:1001800004461946FFF7F0FF204610BD30B50B4678
:10019000014600202022012409E021FA02F59D42B7
:1001A00005D303FA02F5491B04FA02F52844151E8B
:1001B000A2F10102F1DC30BD064C074D06E0E0681B
:1001C00040F0010394E8070098471034AC42F6D39E
:1001D000FFF7B2FFE81B0008081C000870B50446D2
:1001E00000688168C943C9071CD1816821F00101F9
:1001F000816000F097FD05460FE000BF00F092FD22
:10020000401B022809D9A06A40F01000A062E06AF1
:1002100040F00100E062012070BD20688068C043AA
:10022000C007EBD0002070BD10B50146406A826A5D
:1002300012F0500F05D0006A026BBDE8104008466E
:100240001047816A41F40071816201688968C1F3D5
:10025000424107290CD1017B51B9816A21F4807197
:100260008162816AC90403D4816A41F0010181621B
:1002700000F04EF910BD10B5406A816A41F04001AE
:100280008162C16A41F00401C16200F043F910BD0E
:1002900010B5406A00F03DF910BD0000F8B5002629
:1002A0000446009600688168C943C90728D0816860
:1002B00041F001018160134813490068B0FBF1F07F
:1002C00000E0401E00900028FBD100F02BFD054609
:1002D00011E000BF00F026FD401B02280BD9A06AE8
:1002E00040F01000A062E06A40F00100E06284F893
:1002F00024600120F8BD20688068C043C007E9D1B0
:100300000020F8BD1400002040420F00FEE700006E
:10031000014800F05FBA00004C00002030B590F8B2
:1003200040500124AC40C56B6C6004686360436856
:10033000102B036803D099600068C26030BD9A60DA
:100340000068C16030BD704772B6FEE7F8B50025A1
:100350000446009590F82400012808D0012084F874
:1003600024002046FFF73AFF060002D04BE00220AF
:10037000F8BDA06A20F4885040F00200A06202207C
:1003800000F06EFD22490968B1FBF0F0400000E08A
:10039000401E00900028FBD12046FFF77FFF206819
:1003A000816841F00801816000F0BCFC074604E070
:1003B00000F0B8FCC01B0A2811D82068806800072C
:1003C000F6D42068816841F00401816000F0AAFC45
:1003D00007460EE000F0A6FCC01B0A2809D9A06A57
:1003E00020F0020040F01000A06284F824500120A8
:1003F000F8BD206880684007ECD4A06A20F00200B5
:1004000040F00100A06284F824503046F8BD00009E
:1004100014000020F8B50024009490F8242025460C
:10042000012A12D0012280F824204A681F23072ABB
:100430000DD20668776B521E02EB820293409F43F7
:100440000B6893401F43776319E00220F8BD0668EC
:100450000D2A0AD2376BD21F02EB820293409F43D0
:100460000B6893401F43376309E0F76A0D3A02EBCC
:10047000820293409F430B6893401F43F7620A68D0
:10048000072306680A2A0AD3F7680A3A02EB4202EF
:1004900093409F438B6893401F43F76008E03769A0
:1004A00002EB420293409F438B6893401F433761A6
:1004B0000A68102A01D0112A20D1124B02689A42F0
:1004C00017D193681B0219D4936843F40003936017
:1004D0000968102912D10C490C4A0968B1FBF2F1E4
:1004E00001EB8101490000E0491E00910029FBD188
:1004F00004E0816A41F020018162012480F82450E7
:100500002046F8BD002401401400002040420F00A6
:1005100070477047704700002DE9F04104004FF02C
:1005200000057FD0A06A002628B9E66284F824601E
:10053000204600F081F82046FFF750FEA16AC90668
:1005400000D420B1A06A40F01000A0626AE0A16A65
:1005500021F4885141F00201A162334923688B42A2
:10056000E16904D1B1F5402F01D14FF40021277B7F
:100570004FF4807C41EA470261680A43A168614503
:1005800008D0012906D0002194F814E0BEF1010F33
:1005900002D00AE06146F7E7C7B1A76A47F0200733
:1005A000A762E76A47F00107E7625F6827F46947D7
:1005B0000F435F60236899681C4F3940114399606D
:1005C000A16861450BD0012909D00CE0DFF860E09B
:1005D000A7690EEB47370F4347F40061E5E7218A2F
:1005E0000D05A5F580152168CB6A23F470032B4314
:1005F000CB62216889680F4B1940914208D1E662AD
:10060000A16A21F0020141F00101A162BDE8F0817F
:10061000A06A20F0020040F01000A062E06A40F002
:100620000100E0620120F1E7003C0140FDF7E1FF3D
:1006300000E0FFFFFE0E1FFF70B586B000250646E6
:10064000009501950295039500681A4988422ED1BC
:100650001949886940F400708861886900F4007065
:100660000490886940F0040088618869694600F058
:10067000040004900F200090032001900F4800F028
:1006800055FA104C0E48C4E900058020C4E9025018
:1006900040002061800060612020C4E906052046FA
:1006A00000F0BCF908B1FFF74FFE3462666206B095
:1006B00070BD00000024014000100240000801400D
:1006C000080002404C0000202DE9F047894604460E
:1006D0003B4900683B4F0E1D9046884201D0B8420E
:1006E00007D1306810F4702F03D001252846BDE8EB
:1006F000F08794F8240001280CD0012084F824000D
:100700002046FFF7CBFD05004FF0000004D084F831
:100710002400EBE70220EAE7A16A40F60162914378
:1007200041F48071A1622168B94218D1326812F493
:10073000702F14D0A16A41F48011A162316849057B
:1007400005D5A16A21F4005141F48051A162A16A4A
:10075000C9040AD5E16A21F00601E16206E0A26A55
:1007600022F48012A2624968E9E7E06284F824007A
:10077000216A15488862216A1448C862216A1448AF
:10078000086321686FF0020008602068816841F406
:1007900080718160216843464A464C31206A00F0EE
:1007A0007BF920688168C1F342410729816803D041
:1007B00041F48011816099E741F4A001FAE700005B
:1007C000002401400028014029020008910200088D
:1007D000770200082DE9F05FC16B0A6801680B68B9
:1007E000046C4FF0040808FA04F8844D844E854FD9
:1007F000DFF814C2DFF81492DFF814A2DFF814B2A5
:10080000DFF814E218EA020F65D05FEA437862D598
:100810000A68920603D40A6822F004020A60DFF82C
:10082000F0814FF48062016808F11408130114028A
:10083000414524D9A9420DD0B1420FD0B9421AD0B6
:10084000614515D0494515D0514501D1120312E03B
:10085000594501D104220EE0714501D140220AE040
:100860006D4D1435A94206D06B4A2832914201D110
:100870001A4600E022466749091F0A6029E0A9429A
:1008800013D0B14215D0B94220D061451BD04945A3
:100890001BD0514502D14FF4800217E0414502D1EF
:1008A0004FF0806212E0594501D104220EE07145FB
:1008B00001D140220AE0584D1435A94206D0564ACB
:1008C0002832914201D11A4600E022464B490839AC
:1008D0004A60C16A71E04FF0020808FA04F818EAA9
:1008E000020F70D05FEA83786DD50A68920606D44D
:1008F0000A6822F00A020A60012180F82110DFF85C
:1009000010814FF40072016808F1140813011402F9
:10091000414524D9A9420DD0B1420FD0B9421AD0D5
:10092000614515D0494515D0514501D1120312E05A
:10093000594501D102220EE0714501D120220AE081
:10094000354D1435A94206D0334A2832914201D19F
:100950001A4600E022462F49091F0A6029E0A942F1
:1009600013D0B14215D0B94220D061451BD04945C2
:100970001BD0514502D14FF4001217E0414502D17E
:100980004FF0007212E0594501D102220EE071458C
:1009900001D120220AE0204D1435A94206D01E4A7A
:1009A0002832914201D11A4600E022461349083903
:1009B0004A60002180F82010816A00291CD0BDE81F
:1009C000F05F0847FFE70825A540154214D01A0735
:1009D00012D50A6822F00E020A6090F84020C36B1C
:1009E000012101FA02F25A60816380F8211000218E
:1009F00080F82010016BE0E7BDE8F09F080002409E
:100A00001C000240300002404400024058000240F6
:100A10006C000240080402401C04024030B560B182
:100A20001A4B026814219A4209D2194B1344B3FBA2
:100A3000F1F18900016417490AE0012030BD134B30
:100A40005B421344B3FBF1F1890001640F4908399B
:100A5000C163022180F82110136843F6F0718B43C3
:100A6000F0E901142143D0E902452C4321430469F4
:100A700021434469214384692143194311600021C2
:100A80004163012242770177084630BD08040240E5
:100A9000F8FFFDBF0000024070B5044690F820004A
:100AA000002501280CD0012084F8200094F8216052
:100AB0000020012E06D084F820000225284670BDB3
:100AC000022070BD022684F82160A06320680668B9
:100AD00026F0010606602046FFF720FCE06A0028A9
:100AE0002068016802D041F00E0106E021F0040107
:100AF00001602068016841F00A0101602068016816
:100B000041F001010160D9E770B5044600F00AF92F
:100B10000546601C02D004480078044400F002F945
:100B2000401BA042FAD370BD080000202DE9F84F09
:100B3000DFF8C891002409F1040A0AF1040B2346E6
:100B40000F270BF1040ED1E00125A54006EA0502AE
:100B5000AA4276D1DFF8A8C14E68A6EB0C0866451C
:100B60002BD00DDC032E34D005DC36B3012E19D08A
:100B7000022E2FD11BE0112E16D0122E2AD119E0F1
:100B8000B8F5881F19D006DCB8F5803F15D0B8F548
:100B9000801F1FD111E0B8F5001F0ED0B8F5041F5B
:100BA00018D10AE0CB6815E0CB681B1D12E0CB68BA
:100BB00008330FE0CB680C330CE08B682BB1012BB2
:100BC0004FF0080303D0456104E0042302E005610F
:100BD00000E00023FF2A01D8064601E000F10406E8
:100BE0004FEA840501D9A5F12005D6F8008007FA5F
:100BF00005FC28EA0C0803FA05F548EA0508C6F8DA
:100C000000804D68ED0070D53E4DAE6946F001069E
:100C1000AE61AD6924F0030605F0010500953A4D7B
:100C200006EB050CDCF80850A607360F07FA06F8A5
:100C300025EA0805DFF8D480404503D14FF00008CD
:100C400025E052E0DFF8C880404502D14FF00108AE
:100C50001DE0DFF8C080404502D14FF0020816E0E9
:100C6000DFF8B480404502D14FF003080FE0DFF811
:100C7000AC80404502D14FF0040808E0DFF8A080C6
:100C8000404502D14FF0050801E04FF0060808FA90
:100C900006F848EA0508CCF808804D68D9F80060E5
:100CA000ED034D4601D5164300E096432E604D6896
:100CB000DAF80060AD03554601D5164300E09643CF
:100CC0002E604D68DBF80060ED025D4601D51643ED
:100CD00000E096432E604D68DEF80060AD02754678
:100CE00001D5164300E096432E60641C0A68164640
:100CF000E2407FF429AFBDE8F88F00000004014016
:100D000000001110001002400000014000080140E6
:100D1000000C014000100140001401400018014087
:100D2000001C014001488068704700000800002056
:100D300002488168027811448160704708000020F1
:100D4000074810B5016841F010010160032000F070
:100D500075F8002000F006F800F024F8002010BD1F
:100D60000020024070B50D4D04464FF47A7128788A
:100D7000B1FBF0F00A490968B1FBF0F000F0CCFBE0
:100D800048B9102C07D200222146501E00F036F838
:100D900000206C6070BD012070BD000008000020C4
:100DA000140000200C4808B5816941F001018161FF
:100DB000816901F001010091C16941F08051C16177
:100DC000C06900F0805000900448416821F0E06163
:100DD00041F08061416008BD001002400000014008
:100DE000002809DB00F01F0201219140400980002A
:100DF00000F1E020C0F8001170470000F0B40E4B85
:100E00001B680C46C3F30223C3F10705042D00D968
:100E10000425191D072901D2002300E0DB1E01264D
:100E200006FA05F1491E214099409E40761E164063
:100E30003143F0BC00F0BABD0CED00E0064900F013
:100E4000070208684FF6FF03184040EA0220034AF1
:100E500010430860704700000CED00E00000FA0548
:100E600010B52CA401461DCC86B08DE81D002DA028
:100E70002D4C00680490002004292FD00BDC0129A0
:100E80002FD0022928D100F071F96168C1F38131B6
:100E9000491C49001EE0082920D010291CD1616896
:100EA0002268D20118D5C1F38342C9031DF802009C
:100EB00009D5616804AAC1F34041515C1B4AB2FBE9
:100EC000F1F1484301E01A4948436168490203D4FB
:100ED00040000321B0FBF1F006B010BD00F056F960
:100EE000FAE7226AC2F30121012903D1920701D551
:100EF000C803F1E7022905D1626A920702D549F6D3
:100F00004040E9E70329E7D121688903E4D54FF29E
:100F10002440E1E702030405060708090A0B0C0D4B
:100F20000E0F1010010200000010024000127A00A3
:100F300000093D002DE9F84305460078354CC0070F
:100F400054D0E0690026C00008D4E06940F0805029
:100F5000E061E069012600F0805000902E480168B1
:100F6000C90512D40168804641F480710160FFF721
:100F7000D9FE074605E000BFFFF7D4FEC01B64287A
:100F800023D8D8F80000C005F6D5206A10F44070C8
:100F900021D0A98801F4407181421CD0206A1F49E8
:100FA000012220F440700A6000220A602062C0071B
:100FB00011D0FFF7B7FE074641F2883808E000BFBE
:100FC000FFF7B0FEC11B414502D90320BDE8F883FD
:100FD000206A8007F4D5206A696820F440700843CD
:100FE00020621EB1E06920F08050E061287880071F
:100FF00005D56068A96820F44040084360602878FF
:10100000C00605D56068696920F480000843606007
:101010000020DBE700100240007000404004424224
:101020002DE9F0470F46050061D0434E306800F0CF
:101030000700B84209D2306820F00700384330601A
:10104000306800F00700B84251D128683B4C810756
:1010500012D5400703D5606840F4E06060602878EE
:10106000000703D5606840F4605060606068A9685C
:1010700020F0F000084360602878C00728D0686836
:10108000012810D02168022810D0890700292EDA03
:10109000616821F0030101436160FFF743FE804670
:1010A00041F288390DE021688903EFE78901EDE716
:1010B000FFF738FEA0EB0801494502D90320BDE83F
:1010C000F0876068696800F00C00B0EB810FEFD129
:1010D000306800F00700B8420BD9306820F00700F4
:1010E00038433060306800F00700B84201D001207A
:1010F000E5E72878400705D56068E96820F4E060F6
:10110000084360602878000706D56068296920F4E4
:10111000605040EAC100606000F038F86168084A39
:10112000C1F30311515CC8400649086006480068D5
:10113000FFF718FE0020C2E7002002400010024026
:10114000D01B0008140000200C00002004480549B2
:1011500000684968044AC1F30221515CC8407047E5
:101160001400002000100240E01B0008044805495C
:1011700000684968044AC1F3C221515CC840704705
:101180001400002000100240E01B000812A185B0EE
:101190000FC98DE80F0014A0144A0068049051682C
:1011A000134801F00C03042B10D0082B0ED1C1F30F
:1011B0008343C9031DF803000AD5516804AAC1F38B
:1011C0004041515C0A4A5043B0FBF1F005B0704712
:1011D00008494843FAE70000020304050607080926
:1011E0000A0B0C0D0E0F101001020000001002403F
:1011F00000127A0000093D002DE9F84F040070D07C
:101200002078C04DC00749D06868C0F3810001282C
:1012100007D06868C0F38100022809D16868C0035C
:1012200006D52868800339D560680028E7D035E006
:101230006068B0F5803F0BD010B1B0F5A02F11D091
:10124000286820F480302860286820F4802002E09C
:10125000286840F480302860606890B1FFF762FD34
:1012600006460AE0286840F480202860F0E700BFC6
:10127000FFF758FD801B642873D828688003F7D5D2
:101280000CE0FFF74FFD064605E000BFFFF74AFD03
:10129000801B6428F0D828688003F7D420789A4E01
:1012A00080074FF001094FF0000839D5686810F049
:1012B0000C0F07D06868C0F38100022809D1686864
:1012C000C00306D42868800714D52069012808D1F6
:1012D00010E02069B0B1C6F80090FFF723FD074683
:1012E00005E00AE1FFF71EFDC01B0228C4D82868EC
:1012F0008007F7D52868616920F0F80040EAC1004E
:1013000028600DE0C6F80080FFF70CFD074604E0FA
:10131000FFF708FDC01B022823D828688007F7D4F0
:10132000207800072CD57948A169D9B1C0F8009080
:10133000FFF7F8FC074604E0FFF7F4FCC01B0228A7
:101340000FD8686A8007F7D571484FF4FA510068E2
:10135000B0FBF1F0009000BF0098411E0091FAD25E
:101360000EE080E0C0F80080FFF7DCFC074604E0F8
:10137000FFF7D8FCC01B022875D8686A8007F7D42D
:101380002078400760D5E8690027C00008D4E869E4
:1013900040F08050E861E869012700F0805000903B
:1013A0005C480168C90513D40168834641F4807123
:1013B0000160FFF7B7FC824606E000BFFFF7B2FC12
:1013C000A0EB0A0064284ED8DBF80000C005F5D574
:1013D000E06801280AD008B1052813D0286A20F057
:1013E00001002862286A20F0040002E0286A40F028
:1013F00001002862E06841F2883B98B1FFF792FC57
:1014000082460BE0286A40F004002862EEE700BF45
:10141000FFF788FCA0EB0A0159455AD8286A8007D3
:10142000F6D50CE0FFF77EFC824605E0FFF77AFC7C
:10143000A0EB0A0159454CD8286A8007F6D41FB1A1
:10144000E86920F08050E861E06988B36968C1F319
:101450008101022944D00228C6F8608004D0FFF739
:1014600061FC044638E034E0FFF75CFC074604E02A
:10147000FFF758FCC01B02282BD828688001F7D43E
:10148000206AB0F5803F05D16868A16820F400307B
:1014900008436860D4E908010843696821F47411BD
:1014A00008436860C6F86090FFF73CFC044606E01D
:1014B00025E000BFFFF736FC001B022809D828688A
:1014C0008001F7D51BE000BFFFF72CFC001B0228B2
:1014D00002D90320BDE8F88F28688001F4D40EE01B
:1014E0000128F7D06868226A00F48031914204D163
:1014F000616A00F47010884201D00120EAE7002000
:10150000E8E700000010024000004242800442422E
:10151000140000200070004010B5401EB0F1807F24
:1015200001D3012010BD4FF0E02460610F2160174E
:1015300000F03CFA0020A06107202061002010BDCF
:1015400070B5040004D094F83900002510B106E00D
:10155000012070BD84F83850204600F023F8242084
:1015600084F839002068C16821F40051C160204628
:1015700000F07CF92068016921F490410161206844
:10158000416921F02A0141612068C16841F400519C
:10159000C160E563202084F8390084F83A00002017
:1015A00070BD000030B585B0002400940194029411
:1015B000039400681449884224D11448816941F495
:1015C00080418161816901F480410491816941F028
:1015D0000401816180690E4D00F0040004904FF415
:1015E0000070009002200190032003906946284675
:1015F000FFF79CFA2815CDE90004694628460294B5
:10160000FFF794FA05B030BD0038014000100240E9
:10161000000801402DE9F843044690F839001F46C0
:1016200016460D4620284CD1C5B1BEB194F83800FD
:10163000012846D0012084F838004FF00008C4F893
:101640003C80212084F83900FFF76CFBA68481469A
:10165000E684A068B0F5805F03D004E00120BDE817
:10166000F883206928B12E465FF0000584F83880A1
:101670000EE00026FAE78021204600F053F9A0B9D9
:10168000AEB116F8010B21684860E08C401EE08482
:10169000E08C4B464FF0000200970028EBD14FF052
:1016A0004001204600F03EF930B10320D7E735F87D
:1016B000020BC0F30800E6E7202084F83900002080
:1016C000CDE70220CBE7FEE7FEB5002420480094DA
:1016D00001941E49029401608915816001250573FA
:1016E0000475042606614FF460214460C161FEF771
:1016F00013FF08B1FEF728FECDE9004569461448FE
:101700000294FEF787FE08B1FEF71EFE0224CDE923
:10171000005469460E48FEF77DFE08B1FEF714FE40
:101720000094032469460A480194FEF773FE08B149
:10173000FEF70AFECDE9004669460548FEF76AFE57
:10174000002801D0FEF700FEFEBD0000002401408D
:101750001C000020094808B5416941F001014161C0
:101760004069002200F00100009011460B20FFF7B5
:1017700045FBBDE808400B20FFF732BB00100240DC
:10178000094808B5816941F020018161816901F052
:1017900020010091816941F004018161806900F0BC
:1017A0000400009008BD0000001002400C4810B575
:1017B0000A4901604FF4E1314160002181600C224F
:1017C000C160C0E904128161C161FFF7B9FE002860
:1017D00003D0BDE81040FEF7B7BD10BD0038014092
:1017E00090000020FEE7FEE770477047FFF7A0BAC1
:1017F00030B595B028216846FEF7BDFC14210AA833
:10180000FEF7B9FC18210FA8FEF7B5FC012108046A
:10181000CDE900100025029502240491CDE907408E
:101820004FF4E01009906846FFF7E6FC08B172B685
:10183000FEE70AA90F2081E831004FF48060CDE96E
:101840000D0502210AA8FFF7EBFB08B172B6FEE70F
:101850004FF4004011900F940FA8FFF76BFB002886
:1018600001D072B6FEE715B030BD704770B50446C2
:1018700000680169E26821F4405111430161216966
:10188000A0680843616908432168CA6841F20C6393
:101890009A430243CA6020684169A26921F44071F9
:1018A000114341611E492068884202D1FFF75EFC66
:1018B00001E0FFF74BFC00EBC00101EB0012606898
:1018C00064218000B2FBF0F3B3FBF1F36FF0180674
:1018D0007343B2FBF0F5B2FBF0F605EB8305322360
:1018E00003EB0515B5FBF1F5B6FBF1F605F0F005D8
:1018F00005EB0615B2FBF0F6B2FBF0F0B0FBF1F031
:101900006FF01802504306EB800003EB0010B0FBB1
:10191000F1F0216800F00F002844886070BD0000DD
:10192000003801402DE9F041984617460E4604461E
:10193000069D1DE0681C1BD02DB1FFF7F3F9A0EB4D
:101940000800A84214D92068C16821F4D071C16090
:101950002068416921F001014161202084F83900AB
:1019600084F83A00002084F838000320BDE8F081B4
:101970002068006836EA000004D00020B842D9D0C0
:101980000020F3E70120F9E7FEE700000FB4054B64
:1019900010B503A9044A029800F028F810BC5DF8BD
:1019A00014FB0000411B0008180000200907090E65
:1019B000002804DB00F1E02080F80014704700F0FC
:1019C0000F0000F1E02080F8141D704702E008C805
:1019D000121F08C1002AFAD170477047002001E0A9
:1019E00001C1121F002AFBD1704700002DE9FF4FF3
:1019F00089B09B460446002506E025280BD05A46B0
:101A00000B999047641C6D1C20780028F5D10DB00F
:101A10002846BDE8F08F0027B8460122474900E07C
:101A2000074314F8013F203B02FA03F00842F7D1C4
:101A300020782E2819D114F8010F47F004072A281E
:101A40000ED06FF02F022078A0F1300109290CD8B8
:101A500008EB880102EB410100EB0108641CF2E78E
:101A60000A98641C50F8048B0A9020780028CED085
:101A7000642808D0692806D075281ED05A460B99CC
:101A800090476D1C58E00A994FF00A0901C90A9164
:101A9000002802DA40422D2102E0390504D52B212D
:101AA0008DF82010012103E0F90704D02021F7E789
:101AB0008A4608AE0DE00021FAE70A994FF00A09BC
:101AC00001C90A91F7E74946FEF760FB303106F895
:101AD000011D0028F7D1ADEB060000F120097807C1
:101AE00001D44FF00108C84502DDA8EB090000E071
:101AF00000208046002706E008A85A46C05D0B99E2
:101B000090476D1C7F1C5745F6DB04E030205A4699
:101B10000B9990476D1CB8F10001A8F10108F5DCA4
:101B200005E016F8010B5A460B9990476D1CB9F168
:101B30000001A9F10109F4DC641C65E70928010032
:101B400008B502238DF80000012269460148FFF71D
:101B500061FD08BD9000002008B5FFF7F1F8FFF720
:101B600047FEFFF70DFEFFF7F5FDFFF7ADFDFFF7B1
:101B70001DFE0A48FEF7EAFB042209490748FEF762
:101B8000A3FD074CE0880090A3886288218805A007
:101B9000FFF7FCFE6420FEF7B7FFF3E71C00002010
:101BA0000000002061645B315D3D25642061645B61
:101BB000325D3D2564202061645B335D3D256420FA
:101BC0002061645B345D3D2564200D0A0000000047
:101BD00000000000000000000102030406070809DD
:101BE0000000000001020304081C0008000000209F
:101BF0001C000000CC190008241C00081C00002058
:101C0000B4040000DC19000800000000000000001F
:101C10000100000010000000000000000024F4009B
:041C200000000000C0
:0400000508000131BD
:00000001FF
